:0A0000000203D743B25075B100228D
:10000B000204C043960FE595F5954392F0E591F503
:10001B00917E3400320205F9020688759A50438EA0
:10002B000475D78F75D6FD438E1043AF01D2AF7ECB
:06003B003400640205F927
:10004300020499CA7BCA6BCA5BCA4BCA2BCA1BCAB6
:100053000BC0D0C083C0827EB3000F047AB3000FFD
:10006300BEB0642805E47AB3000F7E730010BE733C
:10007300000F38051206278003120323D082D08392
:10008300D0D0DA0BDA1BDA2BDA4BDA5BDA6BDA7BFA
:0E00930032A9C2DDA9C0DD75D50075D40022EA
:1000A3000200465D22680D5D0078122D220B406828
:1000B300099F11222D000B0078F902027E120241E2
:1000C3005C800B806808248150072CB0500A020220
:1000D300862CB040030202837C8B5D1178267CB1B1
:1000E3007CA5BE1080680A5D33780DA5BD80057FB1
:1000F300100202706D0080307F017C5B7CB17CA5B7
:10010300AD1280245D337806A5BD80F080E1CA88F6
:100113007D41AD437CB17CA5AD122D1450020B047F
:100123007C5BAD232F01DA88A42D05BE0080400639
:100133000B80780480982F007C437C507C617C7218
:1001430002025ABE24FFFF6806BE04FFFF780302C3
:10015300027E1202415CB00468F57CB8A54868EFE2
:100163007CB870039F1122A5B800030202862E00FB
:100173008150079C8038070202839C8050ED0A510E
:10018300C2E74D5178030202707E5400807E901ABC
:100193006C0080061B9068142F11BF1040049F1041
:1001A3004CAB0330E7EECAA86CAA80E8DA39DA5818
:1001B3007C4ABE5080500A1B8068BC2F1150020B32
:1001C3007002025A7EA020800C7EA01080057EA0C3
:1001D300086C556D333392D5500A6E34FFFF6E248D
:1001E300FFFF0B1CA5EC3340062F11D5F0F6227C44
:1001F300BA247EA2D5137C767C65A5CC92E77C5B82
:10020300227CB5337CB43392D54E50802481400395
:100213009F11227C457C567C676C7724E0500E7ED0
:100223001CFFFF221E341E2450034E60800478F40A
:1002330030D50A6E34FFFF6E24FFFF0B1C222D0006
:1002430092D50E104E10807D422D445002B2D54EF1
:1002530050806C447CB8222C4450120B1C7E40000E
:100263005E507FBE18000078040B806816A2D57C10
:10027300B8137C4B7CB592E77C5B227E1CFFFF228C
:100283009F11227E24FF8020D5026C456D33227599
:10029300E900A9D7BA75EA007594007593007592C1
:1002A3000075910075960075950075B20075B100E3
:1002B30075B40075B30012000E1206501204161224
:1002C3000026120003120699120094120663120507
:1002D300E07EB3000D12061020B30920C70620B23A
:1002E3000330861BD285D2B474327E70231204E0AD
:1002F300743212044674327E70231204E0801A12A0
:1003030006767E37000ABE34000A38C2D285D2B4DC
:1003130074F4120446C285C2B474F412044680AE67
:100323007EB3001114BEB00A50607EA003A49003F4
:10033300357302035302035A020361020368020383
:100343006F02038D02037102037802037F020386A7
:100353007EB300100205957EB300100205AE7EB396
:10036300001002054A7EB30010020531801C7EB3E3
:10037300001002057C7EB300100205637EB30010FB
:100383000205187EB300100205C7020627E5D40A4A
:100393002B7E340100AD32E5D50A2B2D327A37009E
:1003A3000875D40075D5007E270008E41201CC7EC1
:1003B300145C297E043FEF1200A66D117E0442C82F
:1003C3001201466D117E0440001201461202047AA6
:1003D30037000A227584017E44041FE47A49B01B66
:1003E3004478F97EF8006A7E0400FF7E1406AD0BA4
:1003F3000A405D44681A692000020B0E0B44800A10
:100403007E0BB07A29B00B240B0C1B4478F280DFEF
:1004130002029253B1FC53B2FCC28EA9C08EA9C68C
:1004230089A9D68E5389CF758DFF758BCCC2ABD27C
:100433008EE598543F4440F598D2ACD29C53A23FEA
:10044300C20022CAF87CFBE47AB3000E80117E342A
:1004530000011205F91205E07EB3000D1206107EAD
:10046300B3000E047AB3000EBCBF28E2DAF822CA46
:100473003B7E2400FF7D738D727CEF8D327CF58093
:10048300097E3400FF1205F91BE04CEE78F30A3FB6
:100493001205F9DA3B22CAB853AFFE74017AB300EE
:1004A3000CE59A30E009539AFEE59B7AB3000DE51B
:1004B3009A30E103539AFD43AF01DAB832CAB8C2A6
:1004C3008C20B603D38001C392B67EB30045F58C6E
:1004D3007EB30046F58AD28CC28DDAB8327C5B0AD1
:1004E3003709B30021F58C09B30047F58AD28C7C18
:1004F300B5120446C28C74F4020446D29300000081
:1005030000000000000000000000000000000000E8
:100513000000C293227AB30010D296C297D2A0C22F
:10052300A1C2A2D2A3C294D295D285C2B4227AB375
:100533000010C296D297C2A0D2A1C2A2D2A3D294D3
:10054300C295C285D2B4227AB30010C296D297D292
:10055300A0C2A1C2A2D2A3C294D295D285C2B42210
:100563007AB30010C2A0D2A1D296C297D2A2C2A3DC
:10057300D294C295D285C2B4227AB30010D2A0C25B
:10058300A1D296C297D2A2C2A3C294D295C285D257
:10059300B4227AB30010C2A0D2A1C2A2D2A3C29441
:1005A300D295C296D297C285C2B4227AB30010D232
:1005B300A0C2A1D296C297D2A2C2A3D294C295D20C
:1005C30085D2B4227AB30010C296D297C2A0D2A128
:1005D300D2A2C2A3D294C295C285D2B4227EB30062
:1005E3000C601253AFFE7EB3000D1206A443AF019D
:1005F300E47AB3000C227D237E340FA07D131B14F9
:100603007D3178F87D121B147D2178EC227C7BBE32
:10061300701050057A730011220A379E3400107A45
:1006230073001022C2A0C2A1C2A2C2A3C294C295E7
:10063300C296C297C285C2B4227EB30045F58C7EB2
:10064300B30046F58AD28C120472C28C2253DDBFEA
:1006530043DD2075D39075D2E843AF4043DD80225C
:10066300439420E593F59343B210E5B1F5B1C28508
:10067300C2B4221204FE30C0FDA9D3DD20C0FDA9FF
:10068300C3DD020390C2AC309802C298309904C211
:1006930099C200D2AC32A9C189A9D089D2AFD2A95B
:1006A300227AB199D2002000FD220001000F000040
:1006B300010010140001000C000001000D000001F6
:1006C30000110000240021E3E4E6E7E9EAEBECEEA5
:1006D300EFF0F1F2F2F3F4F5F5F6F6F7F8F8F9F9CD
:1006E300F9FAFAFBFBFBFBFCFCFCFD00010045FDFA
:1006F30000010046080024004705B34ACA348ACDE6
:10070300FD1D2D2D1E03D9A5651AC566FE8E1696F1
:100713000F81EC52B20D62B3FE478BCA0800020090
:0B0723000800000002000A00000000B7
:00000001FF
